:020000040800F2
:10000000B0810020C9040008A1020008A302000872
:10001000A7020008AB020008AF02000800000000C1
:10002000000000000000000000000000B302000813
:10003000B5020008000000009D010008CF34000850
:10004000E3040008E3040008E3040008E3040008F4
:10005000E3040008E3040008E3040008E3040008E4
:10006000E3040008E3040008E3040008E3040008D4
:10007000E3040008E3040008E3040008E3040008C4
:10008000E3040008E3040008E3040008E3040008B4
:10009000E3040008E3040008E3040008E3040008A4
:1000A000E3040008E3040008E3040008E304000894
:1000B000E3040008E3040008E3040008E304000884
:1000C000E3040008E3040008E3040008E304000874
:1000D000E3040008EB2E0008E3040008E304000832
:1000E000B9280008E3040008E3040008E30400085A
:1000F000E3040008E3040008E3040008E304000844
:10010000E3040008E3040008E3040008E304000833
:10011000E3040008E3040008E3040008B92E000823
:10012000CF2E0008E3040008DB2E0008E3040008DB
:10013000E3040008E3040008E3040008E304000803
:10014000E3040008E3040008E3040008E3040008F3
:10015000E3040008E3040008E3040008E3040008E3
:10016000E3040008E3040008E3040008E3040008D3
:10017000E3040008E3040008E3040008E3040008C3
:10018000E3040008E3040008DFF80CD003F0C8FA29
:10019000004800471B020008B0810020EFF30980EF
:1001A00020B120E9F00F07490968086005480649B1
:1001B0000A6802601068B0E8F00F80F309884EF01A
:1001C000040E7047540000205800002004E002F0A4
:1001D00008FD642003F02DF9F9E700240CE003F09A
:1001E000ABF8044624A126A003F0ACFA204603F0A5
:1001F0009EF8642003F01DF9F1E700240CE003F001
:100200009BF804461FA121A003F09CFA204603F0AE
:100210008EF8642003F00DF9F1E708B54FF4407053
:1002200000F064F9A82002F07CFB02F0AFFC02F0C1
:10023000ACFD4FF4E13002F09FFE0320C823002202
:10024000AFF277010090134803F08FF80320C82322
:100250000022AFF2790100900F4803F086F80320E6
:10026000C8230022AFF26D0100900C4803F07DF826
:1002700003F01CF9002008BD7461736B320D0A0095
:10028000257300007461736B3300000025730D0A41
:100290000000000060000020780000209000002096
:1002A000704700BFFEE700BFFEE700BFFEE700BFEC
:1002B000FEE77047704700000CB5002001900090E9
:1002C0007648006840F480307449086000BF734885
:1002D000006800F4003000900198401C01900098E4
:1002E00018B90198B0F5A04FF1D16C48006800F43E
:1002F000003010B10120009001E000200090009833
:10030000012846D165484030006840F0805063497C
:10031000403108606248006840F44040604908602D
:100320005E48083000685D4908310860084600688A
:1003300040F4004008600846006840F4A05008609F
:100340005848091F0860081F006840F08070091FA6
:10035000086000BF5148006800F000700028F9D024
:1003600040F20570504908604C480830006820F0A1
:1003700003004A49083108600846006840F002005E
:10038000086000BF45480830006800F00C000828ED
:10039000F8D10CBD10B54548006840F470004349E1
:1003A00008603E48006840F001003C4908600020B9
:1003B0003A4908310860394800683D4908403749E2
:1003C00008603C48091D0860081F006820F4802070
:1003D000091F0860002031490C310860FFF76CFFED
:1003E0004FF0006031498039086010BD70B50020C1
:1003F0000022022300240221284D08352D6805F033
:100400000C0020B1042806D0082834D107E02A4D7A
:100410002A4E356033E02A4D284E35602FE01F4DBF
:100420002D1D2D68C5F380541C4D2D1D2D6805F024
:100430003F0154B1224DB5FBF1F5184E361D36681B
:10044000C6F3881605FB06F209E01B4DB5FBF1F576
:10045000124E361D3668C6F3881605FB06F20F4DA0
:100460002D1D2D68C5F301456D1C6B00B2FBF3F526
:10047000124E356003E0104D104E356000BF00BFD6
:10048000064D08352D68C5F303150E4E705D0B4DF6
:100490002D68C540094E356070BD0000003802402F
:1004A0000070004008544007003C024088ED00E026
:1004B000FFFFF6FE103000240024F40000000020AE
:1004C00000127A00040000200648804706480047D2
:1004D000FEE7FEE7FEE7FEE7FEE7FEE7FEE7FEE7F4
:1004E000FEE7FEE795030008890100083249014351
:1004F000324A1160704770B5002100230F22C47882
:100500001CB32E4C246804F4E064C4F5E064C4F326
:100510000721C1F10404E3B20A4144789C40E1B2EE
:100520008478144021430C07210E254C0578615531
:10053000047804F01F050124AC4005786D11AD006E
:1005400005F1E025C5F8004109E0047804F01F0535
:100550000124AC401B4D0678761145F8264070BD4D
:10056000194A0A400243154B1B1F1A60704739B1E4
:10057000124A121D12680243104B1B1D1A6006E03E
:100580000E4A121D126882430C4B1B1D1A607047E5
:10059000042808D14FF0E021096941F004014FF02F
:1005A000E022116107E04FF0E021096921F0040128
:1005B0004FF0E022116170470000FA050CED00E0F9
:1005C00000E400E080E100E080FFFF1F016821F00F
:1005D000010101600021016041608160C160016131
:1005E00021214161DB49884204D13D21D94A103A99
:1005F00091608CE0D7491831884205D14FF474617D
:10060000D44A103A916082E0D2493031884205D113
:100610004FF47411CF4A103A916078E0CD494831D7
:10062000884205D14FF07461CA4A103A91606EE079
:10063000C8496031884204D1C749C64A103AD160DE
:1006400065E0C4497831884204D1C449C14A103AAE
:10065000D1605CE0BF499031884204D1C049BD4AB5
:10066000103AD16053E0BB49A831884205D14FF020
:100670003D51B84A103AD16049E0BA49884204D1A4
:100680003D21B84A083A116041E0B6491831884224
:1006900005D14FF47461B34A083A116037E0B149AB
:1006A0003031884205D14FF47411AE4A083A1160D6
:1006B0002DE0AC494831884205D14FF07461A94A18
:1006C000083A116023E0A7496031884204D1A24969
:1006D000A44A121F11601AE0A2497831884204D15D
:1006E0009E49A04A121F116011E09E499031884234
:1006F00004D19B499B4A121F116008E09949A83117
:10070000884204D14FF03D51964A121F1160704744
:1007100010B500220268944B1A40CC680B68234342
:100720004C6923438C692343CC6923430C6A2343DC
:100730004C6A23438C6A23434C6B23438C6B2343C7
:100740001A430260426922F00702D1E90B342343C5
:100750001A4342610B6943604B6883608B68C360D6
:1007600010BD0021016041608160C1600161416193
:100770008161C161016241628162C1620163416361
:100780008163704721B1026842F00102026003E018
:10079000026822F001020260704721B1026842F44F
:1007A0000042026003E0026822F4004202607047E7
:1007B00021B1026842F02002026003E0026822F0E8
:1007C000200202607047416070470146486880B26D
:1007D000704722B1036843F40023036003E0036819
:1007E00023F4002303600161704721B1026842F4E1
:1007F0008022026003E0026822F4802202607047D7
:100800000AB1016100E0C1607047014600200A683A
:1008100002F400220AB1012000E0002070470146E6
:1008200000200A6802F001020AB1012000E0002065
:100830007047014600204A6902F03800704730B521
:1008400003460A4600200024464DAB4202D24149ED
:10085000103901E04349103902F000550DB14C68E0
:1008600000E00C68414D2C4004EA02050DB1012066
:1008700000E0002030BD02463A4B9A4202D2354891
:10088000103801E03748103801F000531BB1374BE6
:100890000B40C36002E0354B0B408360704710B5DE
:1008A00001F080034BB122B1436943F080034361FF
:1008B00003E0436923F08003436180290BD02AB110
:1008C000036801F01E042343036004E0036801F0A1
:1008D0001E04A343036010BD70B50246002000242F
:1008E0000025204EB24202D21A4B103B01E01D4BB4
:1008F000103B1F4E0E4036B11E2606EAD124166864
:1009000006EA040502E0566906F0800501F000568B
:100910000EB15C6800E01C68144E344004EA010625
:1009200016B10DB1012000E0002070BD02460D4B54
:100930009A4202D20748103801E00A48103801F004
:1009400000531BB1094B0B40C36002E0074B0B4047
:1009500083607047106002403D000020400F00207F
:1009600000003D20106402403F801CF07D0F7D0F91
:100970003C0F3C0F002041490860091D0860091D1B
:100980000860091D08603E483C4914310860704702
:1009900000213A498279002A3AD00A46126803684F
:1009A0009A430B461A600A1D126803689A430B1D8E
:1009B0001A60027911440A6803681A430A602F4AD0
:1009C0000832126803689A432C4B08331A601A1DC8
:1009D000126803689A43294B0C331A604279102A33
:1009E0000ED11A1F126803681A43244B08331A6089
:1009F0001A1D126803681A43204B0C331A600DE06D
:100A00001E49427911440A6803681A430A6005E0E6
:100A1000027911440A6803689A430A60704700210A
:100A2000016001710C2141710021817170471349EE
:100A3000103109680143114A1032116070470146B4
:100A400000200E4A143212680A400AB1012000E068
:100A500000207047094914310860704701460020A2
:100A6000064A143212680A400AB1012000E0002050
:100A7000704702491431086070470000003C014093
:100A8000FFFF7F0010B504469848844208D1012139
:100A9000084600F086FB0021012000F082FB76E092
:100AA0009348844208D10121022000F07AFB002102
:100AB000022000F076FB6AE08E48844208D10121D2
:100AC000042000F06EFB0021042000F06AFB5EE0D1
:100AD0008948844208D10121082000F062FB0021EE
:100AE000082000F05EFB52E08448844208D10121D6
:100AF000102000F056FB0021102000F052FB46E0D1
:100B00007F48844208D10121202000F04AFB0021C7
:100B1000202000F046FB3AE07A48844208D10121C7
:100B2000402000F03EFB0021402000F03AFB2EE088
:100B30007548844208D10121802000F032FB002159
:100B4000802000F02EFB22E07048844208D1012171
:100B5000801500F026FB0021A01500F022FB16E016
:100B60006B48844208D10121401500F01AFB002196
:100B7000601500F016FB0AE06648844207D10121A7
:100B8000001500F00EFB0021201500F00AFB10BD3F
:100B9000F0B50A4600210023002400BF3DE00125F6
:100BA00005FA01F3156805EA03049C4234D105688F
:100BB0004F000326BE40B543056015794E00B54091
:100BC0000668354305601579012D02D01579022D8F
:100BD00016D185684F000326BE40B5438560557920
:100BE0004E00B540866835438560456801268E40D5
:100BF000B5434560456896798E40B6B23543456049
:100C0000C5684F000326BE40B543C560D5794E0088
:100C1000B540C6683543C560491C1029BFD3F0BD37
:100C20004FF6FF7101600021017141718171C17145
:100C3000704708B54FF480320092009A0A43009240
:100C4000009AC261C161009AC261C2690092C26920
:100C5000009208BD0246002013690B400BB1012031
:100C600000E0002070470146086980B270470246E4
:100C7000002053690B400BB1012000E000207047B9
:100C80000146486980B270470183704741837047CD
:100C90000AB1018300E041837047416170474269B6
:100CA0004A4042617047F0B5002300244D07ED0E25
:100CB00002FA05F3CE1000F1200555F826504E0734
:100CC000F70E0F26BE40B543CF1000F1200646F8C0
:100CD0002750CE1000F1200555F8265045EA0304B0
:100CE000CE1000F1200545F82640F0BD000002407E
:100CF0000004024000080240000C024000100240C4
:100D00000014024000180240001C02400020024073
:100D10000024024000280240F948006840F0010029
:100D2000F74908600020F64908310860F448006877
:100D3000F4490840F2490860F348091D0860F34887
:100D4000EF4984310860F0481038091D0860EC480C
:100D5000006820F48020EA4908600020E8490C314E
:100D60000860E7498C31086070470021E44A921C12
:100D7000117011460870704710B50146002200231B
:100D800000204A11012A02D1DD4C236808E0022A22
:100D900003D1DB4C7034236802E0D94C74342368EF
:100DA00001F01F02012494401C400CB1012000E01E
:100DB000002010BD38B5002000900024002500BFA1
:100DC0003120FFF7D9FF05460098401C009000989D
:100DD000B0F5A04F01D0002DF2D03120FFF7CCFFAD
:100DE00008B1012400E00024204638BD014600205F
:100DF000C34A106820F0F80040EAC1001060704754
:100E0000C349086070470021BD4A703211701170EB
:100E1000012802D004280AD104E00121B84A703226
:100E2000117005E00521B64A7032117000E000BF74
:100E300000BF7047B7490860704770B5049C41EA2D
:100E400082150126C6EB530645EA0645054345EAE9
:100E50000465AB4E361D356070BDAD490866704700
:100E6000820142EA0172A64B84331A607047A84996
:100E70008866704710B5830143EA016343EA027351
:100E80009F4C8834236010BDA14908677047A04972
:100E9000C864704702460020994B0833186820F058
:100EA000EC6042EA01031843954B08331860704721
:100EB00002460020924B0833186820F0784042EA3E
:100EC000010318438E4B0833186070470146002019
:100ED0008B4A0832106820F0030008431060704706
:100EE00087480830006800F00C0070470146002079
:100EF000834A0832106820F0F00008431060704701
:100F0000014600207E4A0832106820F4E050084371
:100F10001060704701460020794A0832106820F4BA
:100F2000604040EAC10010607047F0B50021002227
:100F30000024022500260223714F08373F6807F07E
:100F40000C0121B1042905D0082937D105E0724FE1
:100F5000076036E0714F076033E0694F3F1D3F681F
:100F6000C7F38056664F3F1D3F6807F03F036EB1E1
:100F70006A4FB7FBF3F7DFF888C10CF1040CDCF81B
:100F800000C0CCF3881C07FB0CF40CE0624FB7FBED
:100F9000F3F7DFF86CC10CF1040CDCF800C0CCF303
:100FA000881C07FB0CF4564F3F1D3F68C7F30147F1
:100FB0007F1C7D00B4FBF5F7076002E0564F076029
:100FC00000BF00BF4E4F08373F6807F0F001090926
:100FD000534F7A5C0768D7404760494F08373F68EE
:100FE00007F4E051890A4E4F7A5C4768D740876022
:100FF000434F08373F6807F46041490B484F7A5C1C
:101000004768D740C760F0BD002100F44072B2F5D8
:10101000407F0AD13A4A0832116821F4F811414A56
:1010200002401143364A08321160354A7032126864
:10103000C0F30B031A43324B70331A6070473549C3
:101040004439086070473349403908607047364971
:101050000860704701460020294A8C32106820F051
:101060001F004A1E1043264A8C321060704701460A
:101070000020234A8C32106820F4F8504A1E40EABF
:1010800002201F4A8C3210607047014600201C4A23
:101090008C32106820F440100843106070470146FD
:1010A0000020174A8C32106820F44000084310607A
:1010B000704701460020124A8C32106820F44030FC
:1010C00008431060704719490860704739B10C4AED
:1010D0003032126802430A4B30331A6006E0084A85
:1010E000303212688243064B30331A607047F9B1D0
:1010F000034A343212680243014B34331A601CE055
:1011000000380240FFFFF6EA1030002400300020D3
:1011100000004742800E47420024F40000127A008B
:1011200014000020FFFCFF0F5C014742E011474222
:101130008F4A126882438E4B1A60704739B18C4ACD
:10114000121D126802438A4B1B1D1A6006E0884A72
:10115000121D12688243864B1B1D1A60704739B1FD
:10116000834A0C3212680243814B0C331A6006E04A
:101170007F4A0C32126882437D4B0C331A607047F1
:1011800039B17B4A103212680243794B10331A602E
:1011900006E0774A103212688243754B10331A60AA
:1011A000704739B1724A243A12680243704B243BAB
:1011B0001A6006E06E4A243A126882436C4B243B64
:1011C0001A60704739B16A4A203A12680243684B84
:1011D000203B1A6006E0664A203A12688243644B5C
:1011E000203B1A60704739B1614A1C3A12680243C9
:1011F0005F4B1C3B1A6006E05D4A1C3A1268824352
:101200005B4B1C3B1A60704739B1594A143A12685B
:101210000243574B143B1A6006E0554A143A1268D1
:101220008243534B143B1A60704739B1504A103A0D
:10123000126802434E4B103B1A6006E04C4A103ACB
:10124000126882434A4B103B1A60704739B1484AD2
:101250001C3212680243464B1C331A6006E0444AB3
:101260001C3212688243424B1C331A60704739B1FA
:101270003F4A2032126802433D4B20331A6006E099
:101280003B4A203212688243394B20331A60704740
:1012900039B1374A243212680243354B24331A607D
:1012A00006E0334A243212688243314B24331A60F9
:1012B000704739B12E4A2C32126802432C4B2C3322
:1012C0001A6006E02A4A2C3212688243284B2C33DB
:1012D0001A60704739B1264A303212680243244BF3
:1012E00030331A6006E0224A303212688243204BC3
:1012F00030331A607047012808D11D493C31096814
:1013000041F008011A4A3C32116007E018493C31AB
:10131000096821F00801164A3C321160704739B162
:10132000134A273A12780243114B273B1A7006E002
:101330000F4A273A127882430D4B273B1A707047A9
:101340000B484030006840F0807009494031086027
:10135000704701460020064A283A12680A400AB13E
:10136000012000E0002070470149263908707047CD
:101370003438024010B501218803FFF756FF0021E1
:101380004FF48040FFF751FF10BD1C4908607047C3
:101390001B490862704730B500228B071C0F0F23D2
:1013A00003FA04F2154B08338C1053F8243093439E
:1013B000124C08348D1044F8253023468C1053F815
:1013C00024308C07240F00FA04F423430B4C083418
:1013D0008D1044F8253030BD0949DC310860704774
:1013E000084908607047002004492031096801F469
:1013F000807109B1012000E00020704700380140F1
:10140000000027420004274210B50446FE488442EB
:1014100008D101210846FFF708FF00210120FFF74E
:1014200004FF9DE0B4F1804F08D101210846FFF789
:10143000EBFE00210120FFF7E7FE91E0F348844234
:1014400008D101210220FFF7DFFE00210220FFF773
:10145000DBFE85E0EE48844208D101210420FFF73D
:10146000D3FE00210420FFF7CFFE79E0E948844253
:1014700008D101210820FFF7C7FE00210820FFF74F
:10148000C3FE6DE0E448844208D101211020FFF73B
:10149000BBFE00211020FFF7B7FE61E0DF48844269
:1014A00008D101212020FFF7AFFE00212020FFF707
:1014B000ABFE55E0DA48844208D101210220FFF753
:1014C000B4FE00210220FFF7B0FE49E0D548844277
:1014D00009D101210804FFF7A8FE00214FF4803054
:1014E000FFF7A3FE3CE0D048844209D10121480423
:1014F000FFF79BFE00214FF40030FFF796FE2FE030
:10150000CA48844209D101218804FFF78EFE0021D8
:101510004FF48020FFF789FE22E0C548844208D1BD
:1015200001214020FFF770FE00214020FFF76CFEF4
:1015300016E0C048844208D101218020FFF764FEF4
:1015400000218020FFF760FE0AE0BB48844207D1FB
:1015500001218015FFF758FE0021A015FFF754FE6A
:1015600010BD00220288A84B98420ED0AC4B984286
:101570000BD0B0F1804F08D0A44B984205D0A44BBB
:10158000984202D0A34B984204D14FF68F731A4071
:101590004B881A43A04B984207D0A04B984204D0E6
:1015A0004FF6FF431A400B891A4302804B68C3620F
:1015B0000B880385944B984202D0994B984201D1F5
:1015C0008B7A03860123838270474FF0FF3141609D
:1015D00000210180018141808172704701858282F2
:1015E00070470A46002101884FF68F731940114356
:1015F0000180704741627047C16270470146486A86
:1016000070470146088D704721B1028842F00202FE
:10161000028004E002884FF6FD731A400280704792
:1016200021B1028842F00402028004E002884FF6F1
:10163000FB731A400280704721B1028842F0800299
:10164000028004E002884FF67F731A4002807047E0
:1016500002884FF6F7731A40028002880A4302801C
:10166000704702884FF6FF431A40028002880A43FF
:101670000280704721B1028842F00102028004E03A
:1016800002884FF6FE731A400280704770B500243E
:1016900000220023058C4FF6FE7635400584028C2F
:1016A0008388048B4FF68F752C40B51E2C400D8817
:1016B0002C43751E2A408D892A434D882A43524D5A
:1016C000A84202D0564DA84213D14FF6F7752A40D2
:1016D000CD892A434FF6FB752A408D882A434FF661
:1016E000FF652B404FF6FF552B400D8A2B434D8A4B
:1016F0002B43838004838D684563028470BD70B57D
:10170000002400220023058C4FF6EF763540058437
:10171000028C8388048B48F6FF752C404FF6FF45FA
:101720002C400D884FF6FF7606EA05252C434FF630
:10173000DF752A408D8906EA05152A434D8806EA99
:1017400005152A43304DA84202D0354DA8421DD17F
:101750004FF67F752A40CD894FF6FF7606EA0515CC
:101760002A434FF6BF752A408D8806EA05152A439D
:101770004FF6FF352B404FF2FF752B400D8A06EADE
:1017800085052B434D8A06EA85052B438380048318
:101790008D688563028470BD70B50024002200232B
:1017A000058C4FF6FF6635400584028C8388848B58
:1017B0004FF68F752C404FF6FC752C400D882C434E
:1017C0004FF6FF552A408D894FF6FF7606EA05252C
:1017D0002A434D8806EA05252A430B4DA84202D02C
:1017E0000F4DA84238D14FF2FF752A40CD894FF6F0
:1017F000FF7606EA05252A434FF6FF352A408D88F5
:1018000006EA05252A4319E00000014000040040D3
:1018100000080040000C0040001000400014004090
:1018200000040140004001400044014000480140E4
:1018300000180040001C0040002000404EF6FF75DC
:101840002B404DF6FF752B400D8A06EA05152B43FC
:101850004D8A06EA05152B43838084838D68C56312
:10186000028470BD70B5002200230024058C4EF662
:10187000FF7635400584038C8488828B48F6FF759B
:101880002A404FF6FF452A400D884FF6FF7606EABC
:1018900005252A434DF6FF752B408D8906EA05354F
:1018A0002B434D8806EA05352B43FE4DA84202D056
:1018B000FD4DA84208D14BF6FF752C400D8A4FF61E
:1018C000FF7606EA85152C43848082838D68056443
:1018D000038470BD0021018041808180816081810D
:1018E000C18101824182704770B503460020002407
:1018F0001846183001258D40ACB21D8CA5431D84BF
:1019000009B108290AD100EB610005684FF68F760E
:10191000354005600568154305600FE00D1FC5F3F0
:101920004E052844056848F6FF7635400560056891
:101930004FF6FF7606EA02263543056070BD416327
:10194000704781637047C1637047016470470A46FE
:101950000021018B4FF68F731940114301837047AB
:101960000A460021018B48F6FF7319404FF6FF73BA
:1019700003EA02231943018370470A460021818B41
:101980004FF68F7319401143818370470A46002137
:10199000818B48F6FF7319404FF6FF7303EA022369
:1019A0001943818370470A460021018B4FF6F77374
:1019B00019401143018370470A460021018B4FF201
:1019C000FF7319404FF6FF7303EA022319430183A3
:1019D00070470A460021818B4FF6F7731940114377
:1019E000818370470A460021818B4FF2FF731940B3
:1019F0004FF6FF7303EA02231943818370470A46B7
:101A00000021018B4FF6FB7319401143018370478E
:101A10000A460021018B4FF6FF3319404FF6FF7342
:101A200003EA02231943018370470A460021818B90
:101A30004FF6FB7319401143818370470A4600211A
:101A4000818B4FF6FF3319404FF6FF7303EA0223F1
:101A50001943818370470A460021018B4FF67F733B
:101A600019401143018370470A460021018BC1F3DD
:101A70000E014FF6FF7303EA0223194301837047F7
:101A80000A460021818B4FF67F73194011438183F1
:101A900070470A460021818BC1F30E014FF6FF7398
:101AA00003EA02231943818370470A460021018C0F
:101AB0004FF6FD7319401143018470470A46002117
:101AC000018C4FF6F77319401143018470470A46A1
:101AD0000021018C4FF6DF7319404FF6FF7303EAC4
:101AE00002131943018470470A460021018C4FF606
:101AF0007F7319404FF6FF7303EA02131943018401
:101B000070470A460021018C4FF6FF5319404FF6EB
:101B1000FF7303EA02231943018470470A46002138
:101B2000018C4FF2FF7319404FF6FF7303EA022353
:101B30001943018470470A460021018C4DF6FF735A
:101B400019404FF6FF7303EA0233194301847047CB
:101B500030B5002301248C40A3B2048C9C43048440
:101B6000048C02FA01F5ADB22C43048430BD30B5CB
:101B7000002304248C40A3B2048C9C430484048C72
:101B800002FA01F5ADB22C43048430BD828B4FF2D2
:101B9000FF331A408283828B4FF6FF7303EA0123DF
:101BA0001A4382837047F0B50C4615460021002287
:101BB0000026078C4EF6FF7C07EA0C070784818B12
:101BC000028C4FF6FF7707EA043640F6FF473940AC
:101BD0004FF6FF7707EA052739434FF6FF7707EA05
:101BE0000337394345F6FF773A4046F480573A4386
:101BF00081830284F0BD828B4FF6F3731A40828397
:101C0000828B0A4382837047F0B50C46154600214B
:101C100000220026078C4FF6FF6C07EA0C070784AA
:101C2000818B028C4FF6FF7707EA04264FF60C777C
:101C300039404FF6FF7707EA03172F4339434FF236
:101C4000FF573A4046F480773A4381830284F0BDDF
:101C5000028B4FF2FF331A400283028B4FF6FF7361
:101C600003EA01231A4302837047F0B50C46154678
:101C7000002100220026078C4FF6EF7C07EA0C07B4
:101C80000784018B028C4FF6FF7707EA041640F6B3
:101C9000FF4739404FF6FF7707EA033739434FF6DE
:101CA000FF7703E0000001400004014007EA052738
:101CB00039434FF65F773A4046F010073A430183C5
:101CC0000284F0BD028B4FF6F3731A400283028B3D
:101CD0000A4302837047F0B50C46154600210022E6
:101CE000068C4FF6FE773E400684018B028C4FF641
:101CF0000C7631407E1C06EA03162E4331434FF624
:101D0000F576324044F00106324301830284F0BD8F
:101D100070B505460C46208850B92389A288618891
:101D20002846FFF7D8FFE1882846FFF7CBFF25E0DC
:101D3000208804280AD12389A28861882846FFF7D1
:101D400094FFE1882846FFF783FF17E020880828E2
:101D50000AD12389A28861882846FFF755FFE188C8
:101D60002846FFF748FF09E02389A28861882846B2
:101D7000FFF719FFE1882846FFF708FF70BD002133
:101D800001804180012181800021C1800181704753
:101D90002DE9F04105460C4600260127608808B968
:101DA000022600E00026A088012801D1022700E0D9
:101DB00001272088A0B92389A28861882846FFF7D7
:101DC0008AFFE1882846FFF77DFF23893A4631469E
:101DD0002846FFF74AFFE1882846FFF739FF13E05E
:101DE0002389A28861882846FFF73FFFE1882846BB
:101DF000FFF72EFF23893A4631462846FFF76BFF4F
:101E0000E1882846FFF75EFFBDE8F0810146486B98
:101E100070470146886B70470146C86B70470146A2
:101E2000086C70470A884B881A438B881A43CB8802
:101E30001A430B891A434B891A438B891A43A0F81A
:101E4000442070470021018041808180C180018150
:101E500041818181704731B1B0F8442042F40042A1
:101E6000A0F8442005E0B0F84420C2F30E02A0F828
:101E70004420704721B1828842F00402828004E04D
:101E800082884FF6FB731A408280704721B18288A6
:101E900042F00102828004E082884FF6FE731A400D
:101EA000828070471AB183890B43838102E0838962
:101EB0008B43838170478182704702460020138ADA
:101EC0000B400BB1012000E000207047CA430282A2
:101ED000704730B50246002000230024158A05EA29
:101EE0000103958905EA010413B10CB1012000E05A
:101EF000002030BDCA430282704741EA0203A0F8C5
:101F0000483070471AB183890B43838102E083898B
:101F10008B438381704721B1828842F0080282801E
:101F200004E082884FF6F7731A4082807047018977
:101F30004FF6F8721140018170470A46002101896D
:101F40004FF68F73194011430181704730B5044635
:101F50000D4629462046FFF7F0FF208940F0070094
:101F6000208130BD2DE9F04104460D4616461F463E
:101F7000602D06D13B46012231462046FFF775FE13
:101F800005E03B46012231462046FFF7A4FE2946E4
:101F90002046FFF7D2FF208940F007002081BDE8EE
:101FA000F08130B50C4600210189C9B24FF6FF75AA
:101FB00005EA0325154325432943018130BD2DE959
:101FC000F04105460E4617469846002443463A46D9
:101FD00031462846FFF7E5FF2C894FF6F87004409C
:101FE00044F007044FF68F70044044F070042C81D5
:101FF000BDE8F081F0B504460D4616461F463B4647
:10200000324629462046FFF7CCFF208940F4804025
:102010002081F0BD82884FF68F731A4082808288BB
:102020000A438280704702894FF6F8731A40028192
:1020300002890A430281704702894FF67F731A4072
:10204000028102890A4302817047F0B50C461546A9
:102050001E460021002200230189028B038C4FF6CB
:10206000F877394021434FF6FC473A4040F20117D8
:102070003A434FF6DD773B404FF6FF7707EA061706
:102080002F433B43018102830384F0BD21B1828849
:1020900042F08002828004E082884FF67F731A400B
:1020A00082807047A0F850107047000010B50446B9
:1020B000FA48844208D101211020FFF7B6F8002128
:1020C0001020FFF7B2F857E0F548844209D101210A
:1020D0004804FFF799F800214FF40030FFF794F817
:1020E0004AE0F048844209D101218804FFF78CF8C6
:1020F00000214FF48020FFF787F83DE0EA48844252
:1021000009D10121C804FFF77FF800214FF4002016
:10211000FFF77AF830E0E548844209D1012108054B
:10212000FFF772F800214FF48010FFF76DF823E0FD
:10213000DF48844208D101212020FFF776F80021F2
:102140002020FFF772F817E0DA48844209D1012114
:102150008807FFF759F800214FF08040FFF754F847
:102160000AE0D548844207D101214005FFF74CF829
:1021700000216005FFF748F810BD2DE9FF4705462F
:102180000E460024A14600BFA046B08900B100BFA2
:102190002C8A24F44054F08804432C82AC8941F208
:1021A0000C608443B0883189084371890843044333
:1021B000AC81AC8A24F44074B0890443AC82684694
:1021C000FEF7B3FEB548854202D0B948854202D138
:1021D000DDF80C9001E0DDF80890A88900F40040DB
:1021E00040B109EBC90000EB091031684900B0FBB0
:1021F000F1F707E009EBC90000EB0910316889002D
:10220000B0FBF1F76420B7FBF0F004012009642172
:1022100001FB1078A88900F4004040B1322000EBA7
:10222000C800B0FBF1F000F00700044308E03220E2
:1022300000EB08106421B0FBF1F000F00F00044344
:102240002C81BDE8FF874FF4165101600021818089
:10225000C18001810C21418100218181704710B52D
:1022600002460020108A20F470600B884C882343BB
:102270008C882343CC8823431843108210BD00214F
:10228000018041808180C180704721B1828942F400
:102290000052828104E082894DF6FF731A408281E8
:1022A0007047028B02F47F420283028B0A4302834F
:1022B000704721B1828942F40042828103E0828921
:1022C000C2F30E028281704721B1828A42F4006219
:1022D000828204E0828A4FF2FF731A408282704742
:1022E000C1F308028280704701468888C0F3080065
:1022F0007047028A4FF6F0731A400282028A0A433C
:102300000282704721B1828942F00202828104E098
:1023100082894FF6FD731A408281704782894FF29D
:10232000FF731A40828182890A4382817047028A40
:102330004FF6DF731A400282028A0A430282704714
:1023400021B1028A42F48042028204E0028A4BF602
:10235000FF731A4002827047818941F00101818137
:10236000704721B1828A42F00802828204E0828AA8
:102370004FF6F7731A4082827047028BD2B2028303
:10238000028B42EA01220283704721B1828A42F025
:102390002002828204E0828A4FF6DF731A40828232
:1023A000704721B1828A42F01002828204E0828A60
:1023B0004FF6EF731A4082827047828A4FF6FB73A2
:1023C0001A408282828A0A438282704721B1828ABD
:1023D00042F00202828204E0828A4FF6FD731A40C4
:1023E000828270471AB1838A0B43838202E0838A18
:1023F0008B4383827047F0B50346002400260025F6
:10240000002040F66A17B94200D100BF1846C1F358
:10241000421401F01F06012707FA06F5012C01D12D
:102420000C3004E0022C01D1103000E014301AB15D
:1024300007682F43076002E00768AF430760F0BDFD
:1024400002460020B1F5007F00D100BF13880B4089
:102450000BB1012000E00020704701F40072B2F5DA
:10246000007F00D100BFCA430280704770B50246AA
:10247000002400230025002040F66A16B14200D156
:1024800000BFC1F3421501F01F03012606FA03F352
:10249000012D13D19689334017E000000010014050
:1024A0000044004000480040004C00400050004004
:1024B0000014014000780040007C0040022D02D151
:1024C000168A334001E0968A33400C12012606FA40
:1024D00004F41688344013B10CB1012000E0002050
:1024E00070BD10B50022002340F66A14A14200D14D
:1024F00000BF0A1201249440A3B2DC43048010BD43
:1025000030B1F549096841F40051F34A116005E022
:10251000F149096821F40051EF4A116070470EB586
:1025200001218803FEF72CFE0D210320FEF733FF67
:102530004FF40050009000208DF804000C208DF81E
:10254000050001208DF806006846FEF721FA4FF4D9
:102550000050FEF78EFA28208DF8080003208DF831
:1025600009008DF80A0001208DF80B0002A8FDF784
:10257000C2FF0020FFF7C4FF0EBD01B500BF0098E9
:10258000411E00910028FAD108BD70B5044600250F
:1025900000BF24E004F0800028B14FF40041CF4890
:1025A000FEF772FB04E04FF40041CC48FEF76EFBEF
:1025B0006006040E0120FFF7E0FF4FF40051C7480A
:1025C000FEF764FB0120FFF7D8FF4FF40051C3482A
:1025D000FEF75AFB0120FFF7D0FF681CC5B2082D9B
:1025E000D8DB70BD70B50646002500244FF40051BD
:1025F000BA48FEF74BFB4FF40051B948FEF746FBD3
:102600000120FFF7BAFF3046FFF7BFFF062000F0BA
:1026100033FA4FF40051B148FEF736FB0120FFF7C3
:10262000ACFF4FF40051AD48FEF730FB0120FFF73F
:10263000A4FF00BF20E04FF6FF7000EA44044FF40F
:102640000051A648FEF722FB0120FFF796FF4FF44A
:102650000051A248FEF718FB0120FFF78EFF4FF450
:1026600080419E48FEF7F6FA08B1601C84B2012052
:10267000FFF783FF681CC5B2102DDCDB24114FF47B
:1026800000519748FEF700FB0120FFF776FF204638
:1026900070BD2DE9F04188B080460027002406E097
:1026A0004046FFF79FFF2DF81400601C84B20F2CEA
:1026B000F6DB002416E0601C85B20FE03DF8140044
:1026C0003DF81510884207DD3DF814603DF815000F
:1026D0002DF814002DF81560681C85B20F2DEDDB68
:1026E000601C84B20E2CE6DB0027052405E03DF8D3
:1026F0001400384487B2601C84B20A2CF7DB052032
:1027000097FBF0F086B2304608B0BDE8F0812DE9C5
:10271000F04104460D46D020FFF7BBFF064690204F
:10272000FFF7B7FF0746642E01DB642F02DA0020B3
:10273000BDE8F08126802F800120F9E71CB501213A
:102740000E20FEF7C3FC01208DF8040000208DF858
:10275000060002208DF8050000208DF807004FF4D8
:102760002040009069465D48FEF712FA01208DF87E
:10277000040000208DF8060002208DF805000020DE
:102780008DF807004FF40050009069465448FEF75A
:10279000FFF900208DF804008DF807004FF4804009
:1027A000009069464D48FEF7F3F9402000906946D5
:1027B0004C48FEF7EDF94FF400414848FEF764FA43
:1027C0004FF400514548FEF75FFA4FF4005144487A
:1027D000FEF75AFA1CBD1CB50020019000909FED39
:1027E000420A424880ED030A9FED410A80ED040A47
:1027F0004FF451703D4988824FF4FA70C882FFF758
:102800009DFF694601A8FFF782FF4FF47A7000F040
:1028100033F9FFF784FE1CBD10B53449891D881EAD
:10282000FFF775FFF0B33148B0F9140000EE100A5D
:10283000B8EEC00A2D4890ED031A808800EE900A89
:10284000F8EE600A01EE200ABCEEC00A10EE100A93
:102850002649088008460088B0F5C87F07DD08468D
:102860000088A0F5C870C0F5C87008800AE01F484D
:102870000088B0F5C87F05DA1C480088C0F54870AC
:102880001A4908801948B0F9160000EE100AB8EE8F
:10289000C00A164890ED041AC08800EE900AF8EEBF
:1028A000600A00E007E001EE200ABCEEC00A10EE6C
:1028B000100A0E49488010BD10B54FF40050FEF7C5
:1028C000CDF838B1FFF7A8FF01200A49087040038E
:1028D000FEF7CFF810BD0000003C014000040240AC
:1028E00000080240000C02400725DCBEC0000020AA
:1028F00068D080BE240000207A4908680DE0006896
:10290000416851B14168491E416031B901214173AB
:10291000017B012901D18168416001680029EED164
:10292000704770B504460420FDF732FE6E490C7006
:1029300025464FF47A70454301206C4908804FF0DA
:10294000E020006940F002004FF0E02108610846F5
:102950004561006940F001000861042000F014FCAA
:102960006049086000200968086070BD10B5FFF775
:10297000C3FF5F480068401C5D4908600846006866
:102980006FF00041884202D100205949086010BD13
:1029900010B5012000F0A3F855480468002000F0AD
:1029A0009EF8204610BD2DE9F04107460E469046A0
:1029B000202000F0E9FB044614B90020BDE8F081B6
:1029C0006660A6600020607384F80C802060394641
:1029D00004F10E0000F09AFE4248056800E02D6800
:1029E00028680028FBD1012000F079F82C60002035
:1029F00000F075F80120E1E770B505463948006838
:102A000004683848066814E0294604F10E0000F016
:102A10006FFE60B9012000F062F820683060204647
:102A200000F007FC002000F05AF8012070BD264697
:102A30002468002CE8D10020F8E770B50546294845
:102A4000046814E02468294604F10E0000F050FEEA
:102A500068B9607B012808D1207B10B92846FFF7B0
:102A6000CBFF00206073012070BD0020FCE72068D0
:102A70000028E7D100BFF7E770B503460024002126
:102A80000020002200254FF0E0267569164E3678AA
:102A900003FB06F44FF0E026B16910E04FF0E026AA
:102AA000B06988420BD0884202D20E1A324402E04A
:102AB0002E1A0E4432440146A24200D300E0EDE754
:102AC00000BF70BD30B50446002505E04FF47A70B4
:102AD000FFF7D2FF681C85B2A542F7DB30BD80F35B
:102AE00010887047280000203000002032000020AD
:102AF0002C00002030B1012811D002281DD003285D
:102B000036D128E00021404A116001213F4AC2F835
:102B1000A0123F4A11603F4AC2F89C1234E00121E2
:102B2000394A11600021394AC2F8A0120121384AFD
:102B30001160384AC2F89C1226E00121324A116025
:102B4000324AC2F8A0120021314A11600121314AF3
:102B5000C2F89C1218E001212B4A11602B4AC2F8DE
:102B6000A0122B4A116000212A4AC2F89C120BE0E5
:102B70000121254A1160254AC2F8A012244A116099
:102B8000244AC2F89C1200BF00BF70471CB5012147
:102B90000620FEF79BFA01208DF8040000208DF836
:102BA00006008020009000208DF8070002208DF89C
:102BB000050069461848FDF7EBFF4FF48070009060
:102BC00069461548FDF7E4FF402000906946134828
:102BD000FDF7DEFF8020009069461048FDF7D8FF22
:102BE0001CBD10B50E4908780978491C0C4B1970AA
:102BF000FFF780FF0A48007800F0040010B10020C1
:102C00000749087010BD00009C824042008040428D
:102C10009802414200004142000402400008024084
:102C20003400002010B59C48006850B19B480068F3
:102C300038B19A48001F006818B19848001D006814
:102C4000C0B90A20FFF73EFF9348006808B9012089
:102C500010BD9248006808B90320F9E78F48001FAB
:102C6000006808B90220F3E78C48001D006808B925
:102C70000420EDE70020EBE770B500240026FFF705
:102C8000D1FF044644B1864801780078401C844A4C
:102C900010708448445413E094B98148007878B1A6
:102CA00000207F4908707F480478002504E0002058
:102CB0007C494855681CC5B20A2DF8DB204670BD1A
:102CC000774800780A283AD17648047801250AE046
:102CD0007448405DA04204D1701CC6B20020714906
:102CE0004855681CC5B20A2DF2DB00206C490870FB
:102CF000082E22DD00BF684800680028FBD0674826
:102D000000680028F7D06548001F00680028F2D04E
:102D10006248001D00680028EDD0012C01D105207B
:102D2000CDE7032C01D10720C9E7022C01D10620F1
:102D3000C5E7042C03D10820C1E72046BFE70020E7
:102D4000BDE710B5FFF798FF5749087008460078AF
:102D5000092818D2DFE800F00B0509070D0F111341
:102D60001500012010BD0220FCE70320FAE7002037
:102D7000F8E70420F6E70520F4E70720F2E706204D
:102D8000F0E70820EEE70020ECE71CB50121052064
:102D9000FEF79CF900208DF804008DF80600012054
:102DA0008DF8070002208DF80500009069463F4825
:102DB000FDF7EEFE0420009069463C48FDF7E8FE72
:102DC0000820009069463948FDF7E2FE02208DF8A0
:102DD00007000120009069463548FDF7D9FE202004
:102DE00000F0D2F9334908600020096808601CBD72
:102DF0002DE9F04706460F469046994600242D4897
:102E00000568202000F0C0F9044614B90020BDE890
:102E1000F087C4F80C90C4F8088027710020206067
:102E2000314604F1100000F071FC00E02D682868C4
:102E30000028FBD12C600120E9E770B505461D484C
:102E4000046810E0216801F11000294600F050FCF0
:102E500040B92668206800682060304600F0E9F933
:102E6000012070BD246820680028EBD100BFF8E77E
:102E700070B5FFF766FF05460E48046808E0206855
:102E80000079A84203D12268D2E902108847246859
:102E900020680028F3D170BD000240420802414280
:102EA0003D000020DC0000203C0000200008024023
:102EB000000002403800002010B501211048FFF743
:102EC00008F818B101210E48FFF714F810BD10B52D
:102ED0000C490D48FDF7CFFC10BD10B54FF08151E6
:102EE00009483030FDF7C7FC10BD10B50748FFF7A3
:102EF000FBF9044640210548FFF7AFFA10BD00007A
:102F00000014004020000010106402400010014036
:102F100000B58FB001218805FEF7D8F86548FDF7A8
:102F200055FB00BF6348FDF77AFC0028FAD14FF04B
:102F3000006000906048019060480290402003903B
:102F40004FF416700490002005904FF480600690B6
:102F500000200790089009904FF480300A900020DC
:102F60000B9003200C9000200D900E906946514864
:102F7000FDF7CEFB0FB000BD10B588B004460121AF
:102F80000846FEF7A3F801211020FEF7F9F8072202
:102F900009214B48FDF787FE07220A214848FDF723
:102FA00082FE4FF4C060069002208DF81C008DF860
:102FB0001D0000208DF81E0001208DF81F0006A9BD
:102FC0003F48FDF7E5FD02940020ADF80C00ADF898
:102FD0000E00ADF81000ADF814000C20ADF8120092
:102FE00002A93548001FFFF7C8F801213248001F29
:102FF000FFF74BF940213048001FFFF72EFA01225E
:1030000040F225512C48001FFFF7F5F925208DF8D7
:10301000040003208DF805008DF8060001208DF8CE
:10302000070001A8FDF767FA26A128A000F08AFB97
:1030300008B010BD00BF204A121F128802F04002E3
:10304000002AF8D0C2B21C4B1B1F9A80704710B5E3
:10305000012280211848001FFFF7C4F94FF02051CA
:103060001448FDF708FC00211248FDF78BFB00BF58
:103070001048FDF7D4FB0028FAD14FF416710D4823
:10308000FDF7A1FB01210B48FDF77CFB10BD10B53E
:10309000002400BF08E0FF2094FBF0F100FB11408A
:1030A00006490855601C84B2B4F5167FF3DBFFF7C0
:1030B000CEFF10BDB864024004100140E6000020BD
:1030C00000000240746573740D0A0000257300004F
:1030D00010B50146654800E0006803688B42FBD3E9
:1030E0000246436813448B4204D143684C6823442E
:1030F000436001460A464B6813440468A34211D159
:103100005B4C03682468A34208D04B680468646879
:1031100023444B6003681B680B6005E0544B1B683D
:103120000B6001E003680B60884200D0016010BDB5
:1031300030B54FF4F0444F4901F0070028B1C91DE4
:1031400021F007014B48081A241A0B464748036030
:103150000020464D68601919083945480160002073
:10316000434D2D682860424D2D6868601A46881AC4
:1031700050603F48006810603F4D506828603F4DE8
:1031800050682860012030BD2DE9F04105464FF020
:10319000000815B94046BDE8F0813548006808B917
:1031A000FFF7C6FF05F0004000B9083505F007003D
:1031B00010B1ED1D25F007052F480068854236D86F
:1031C0002A4E3046046801E0264624686068A8421A
:1031D00002D220680028F7D125480068844226D012
:1031E000306800F10808206830606068401B1028D3
:1031F00007D967196068401B786065603846FFF73B
:1032000067FF1D4960680968081A1B49086008467D
:1032100000681A490968884203D2174800681749AC
:103220000860606840F00040606000202060404618
:10323000B1E770B506463546A5B1083D2C46606835
:1032400000F0004070B1206860B9606820F0004074
:1032500060600949606809680844074908602046B9
:10326000FFF736FF70BD044800687047400000203B
:1032700048000020E60400204C0000205000002000
:1032800000E000BFFDE7002080F3098800BFFF20B9
:1032900091490870C80690491E39086070474FF080
:1032A00080508D491E390860704730B54FF08075E9
:1032B0001C1F234625601C1F2346216014251C1F4C
:1032C0002346256012251C1F2346256003251C1F4D
:1032D0002346256002251C1F2346256001251C1F4F
:1032E000234625601C1F2346226011251C1F2346F0
:1032F000256010251C1F2346256009251C1F234619
:10330000256008251C1F2346256007251C1F234612
:10331000256006251C1F2346256005251C1F234606
:10332000256004251C1F23462560036030BD00BFB7
:1033300080F3108800BF704700BFEFF3108108468C
:1033400072B6704770B5FFF7F7FF054600F04FF90A
:10335000044662480068844203D061480460FFF775
:103360009EFF2846FFF7E3FF70BD2DE9F0470446B6
:10337000884691461D46089FFFF7DEFF8246142DC2
:1033800002D80020BDE8F0870A2F01DD0020F9E710
:10339000A800FFF7F9FE06460EB90020F2E706EB9B
:1033A00085034A4641462046FFF77FFF04F110009F
:1033B00000F09CF8A76000206060207304F110000A
:1033C00000F0D0F84548006808B1FFF7BBFF504651
:1033D000FFF7ADFF0120D5E72DE9F04704460F4682
:1033E00090461D46DDE90896FFF7A6FF82460A2EA5
:1033F00002DD0020BDE8F08705EB8903424639462F
:103400002046FFF752FF04F1100000F06FF8A660AD
:1034100000206060207304F1100000F0A3F82F4832
:10342000006808B1FFF78EFF5046FFF780FF0120CC
:10343000E0E770B50446FFF77FFF054627480068C0
:103440004460022025490968087324480068103048
:1034500000F0A1F821480068103000F019F9FFF7DA
:1034600071FF2846FFF763FF70BD70B5FFF764FF7B
:1034700006461C4844680FE0A4F110056868401E29
:10348000686040B900202873204600F00FF92046FC
:1034900000F068F803E0646812488442ECD100BF91
:1034A0003046FFF744FFFFF74DFF70BD08B5092018
:1034B00032230022AFF2372100900B48FFF755FF6F
:1034C00000F095F806490860FFF7DDFE08BD10B56D
:1034D000FFF7CBFF10BD000022ED00E054000020FC
:1034E00058000020A07D0020E87C002040600060A3
:1034F00070474060006000218160017370470146A1
:1035000088687047426812680A6042684A60426888
:10351000116041608268521C8260704702680A60D4
:1035200048600268516001608268521C8260704786
:10353000D1E900325A60D1E900231A608268521E34
:103540008260704710B543681946826803E05B6883
:1035500049600960521E002AF9D1406000600024D1
:10356000846010BD10B50346A3F110045E49A06845
:1035700001EB0010806828B95B4AA16802EB0110DA
:10358000FFF7B7FF584AA16802EB01101946FFF791
:10359000C5FF012010BD2DE9F0410446A4F110083B
:1035A00098F80860504800EB0610806810B90020B9
:1035B000BDE8F0814C4800EB061047684A4800EB34
:1035C0000610057A0BE0A74206D1474901EB061029
:1035D0002146FFF7ADFF04E07F68681EC5B2002DED
:1035E000F1D100BF0DB10120E2E70020E0E770B5A6
:1035F000002100BF48E03C4800EB0110806800B9A2
:1036000040E0394800EB01108068012807D13648B6
:1036100000EB01104268A2F11004204670BD324850
:1036200000EB0110806802282BD32F4800EB01101B
:103630004268002302E05268581CC3B22A4800EBDB
:103640000110007B9842F6DC274800EB0110007B5C
:10365000401C254D05EB01152873234800EB011094
:10366000007B214D05EB0115AD68B0FBF5F605FBC0
:1036700016001D4D05EB01152873A2F1100420461C
:10368000CCE700BF481CC1B20A29B4DB0020C5E763
:1036900000B503461548806810B91448FFF729FFA4
:1036A00019461248FFF73AFF012000BD70B50546E4
:1036B0000E48806808B9002070BD0C484668047A3E
:1036C00009E0AE4204D129460848FFF731FF04E083
:1036D0007668601EC4B2002CF3D100BF0CB101208B
:1036E000EAE70020E8E70000007D0020A07D002040
:1036F00010B5002200E0521C835C8C5CA34201D117
:10370000002BF8D1D8B2E1B2401A10BD034611F82F
:10371000012B00F8012B002AF9D118467047000050
:10372000064C074D06E0E06840F0010394E807000E
:1037300098471034AC42F6D3FCF72AFD58380008FD
:10374000783800080FB4054B10B503A9044A029855
:1037500000F017F810BC5DF814FB000035300008CD
:103760005C00002002E008C8121F08C1002AFAD13C
:1037700070477047002001E001C1121F002AFBD1F1
:1037800070472DE9F84F994692468846054600272E
:1037900006E025280AD051464A4690476D1C7F1CFA
:1037A00028780028F5D13846BDE8F88F002315F8B1
:1037B000011F18462E2915D115F8011F04232A29A7
:1037C0000DD06FF02F022978A1F13004092C09D80F
:1037D00000EB800002EB400008446D1CF3E758F852
:1037E000040B6D1C2A78002ADDD0632A07D0732AC7
:1037F0000FD0104651464A4690477F1C2AE018F8E1
:10380000042B8DF8002000218DF801106E46012157
:1038100003E058F8046B4FF0FF315A074FF00004F3
:1038200001D409E0641C84420BDA8C42FADB325D7D
:10383000002AF7D105E0641C8C42FCDB305D0028D7
:10384000F9D1274404E016F8010B51464A46904747
:10385000641EF8D26D1CA3E7783800080000002031
:103860006000000064370008D838000860000020BD
:103870005081000074370008007A030A000000003D
:103880000000000001020304060708090000000010
:1038900001020304010203040607080900FF0000F7
:1038A0000000000000000000000000000000000018
:1038B0000000000000000000000000000000000008
:1038C00000000000000000000000000000000000F8
:0838D0000000000000000000F0
:040000050800018965
:00000001FF
